:020000020000FC
:060000000C949D08189508
:02000800189549
:02000C00189545
:060010000C942900189574
:02001800189539
:02001C00189535
:02002000189531
:0200240018952D
:060028000C944100189544
:02003000189521
:0200340018951D
:02003800189519
:02003C00189515
:060040000C9473001895FA
:02004800189509
:02004C00189505
:1000500018950F921F9280916B0083958E3721F433
:10006000882791E090936C000E94AB0490917A00F5
:100070009F70902990937A0080936B001F900F904F
:1000800018950F921F928091FF008031D1F4DC9877
:10009000882790917E00939590937E00983019F474
:1000A000992790937E0090910A01992319F09A95CF
:1000B00090930A0190910D01993090F09A95909348
:1000C0000D010E948F00F8948F929F92802C912CAA
:1000D0000E94DF009F908F90DC9A83958093FF00B1
:1000E0001F900F9018950F921F92D4B0E5B0F0902A
:1000F00002019AE0EE0CDD1CEE0CDD1C8FE08D1988
:100100008F9DF8948F929F92882E992E0E9444067C
:100110009F908F9080936D001F900F901895F8948A
:10012000DF93CF93FF93EF93222049F0AF92BF92DA
:10013000CF924F935F936F937F938F929F9223946D
:100140007894CC2480906D009090FF008094980C5F
:10015000A0907E00EEE6F0E0AA0CEA0DFC1D4191B5
:100160005191BB24B094B694EFE7F0E0AA0CAA0C2E
:10017000AA0CEA0DFC1DAA246991961608F04B21E1
:100180000894B794C8F3AA2031F44527542745278B
:10019000A394B694F1CF052E142EF8942A9449F026
:1001A0009F908F907F916F915F914F91CF90BF9073
:1001B000AF90EF91FF91CF91DF9178940895F894EB
:1001C000DF93CF93FF93EF93222049F0AF92BF923A
:1001D000CF924F935F936F937F938F929F922394CD
:1001E00078946627482D592D43FD606453FD60685F
:1001F0004B7F5B7F75B37F73672B48BB52BB65BB7F
:10020000F8942A9449F09F908F907F916F915F911D
:100210004F91CF90BF90AF90EF91FF91CF91DF9131
:1002200078940895F894DF93CF93FF93EF9322206F
:1002300049F0AF92BF92CF924F935F936F937F93AA
:100240008F929F922394789449B74C7F49BFDA9854
:100250000000DA9A8824992450E1990C881CC899E6
:100260009394D998D99A5A95C1F749B7436049BF31
:10027000A0900301B0900401A0920801B09209017E
:100280008092030190920401F8942A9449F09F907F
:100290008F907F916F915F914F91CF90BF90AF9072
:1002A000EF91FF91CF91DF9178940895F894DF93C7
:1002B000CF93FF93EF93222049F0AF92BF92CF925A
:1002C0004F935F936F937F938F929F922394789431
:1002D0008090030190900401A0900801B090090162
:1002E000A82421F4B92411F40C94BD01482D592DF2
:1002F0004A215B21A5FC06C085FC0E94C50285FE43
:100300000E94FA0244FD0E94280343FD0E945D03FF
:1003100042FD0E94930341FD0E94CB03A7FC06C04F
:1003200087FC0E94030487FE0E942A046A2D6770DE
:1003300001F1682D67708894661F661F661F762F0F
:100340007695672770910701772331F47395609351
:100350000C01709307010DC070910C016717609339
:100360000C0139F008F018F40E94650202C00E94E6
:1003700046028824839480920001F8942A9449F0DC
:100380009F908F907F916F915F914F91CF90BF9091
:10039000AF90EF91FF91CF91DF9178940895F89409
:1003A000DF93CF93FF93EF93222049F0AF92BF9258
:1003B000CF924F935F936F937F938F929F922394EB
:1003C0007894002460910301709104016F707F7F25
:1003D000962E972AA1F09924409108015091090185
:1003E0004F705F7F641749F4751739F480900A01E4
:1003F0008A941AF09394582D03C058EC01C05527E5
:1004000050930A01092CF8942A9449F09F908F90F8
:100410007F916F915F914F91CF90BF90AF90EF918F
:10042000FF91CF91DF9178940895F894DF93CF9363
:10043000FF93EF93222049F0AF92BF92CF924F9358
:100440005F936F937F938F929F9223947894369AC1
:10045000F8942A9449F09F908F907F916F915F91CB
:100460004F91CF90BF90AF90EF91FF91CF91DF91DF
:100470007894089580900D01869486948694409196
:100480000B0150910E01609102010895F894DF93E1
:10049000CF93FF93EF93222049F0AF92BF92CF9278
:1004A0004F935F936F937F938F929F92239478944F
:1004B0000E943A02552331F1643129F0639560932B
:1004C00002010C94B0020C94B002F894DF93CF9325
:1004D000FF93EF93222049F0AF92BF92CF924F93B8
:1004E0005F936F937F938F929F92239478940E944F
:1004F0003A028194552331F0613039F06A95609366
:1005000002012EC0403009F002C00C94B00241300C
:1005100039F4F8948F92882C0E9418078F9020C08D
:10052000423039F4F8948F92882C0E9493078F9070
:1005300017C0433039F4F8948F92882C0E946907D1
:100540008F900EC050916A00552351F0F8948F920D
:100550009F92882C952E0E940A089F908F9000C031
:100560005FEF50930D01F8942A9449F09F908F907B
:100570007F916F915F914F91CF90BF90AF90EF912E
:10058000FF91CF91DF9178940895F894DF93CF9302
:10059000FF93EF93222049F0AF92BF92CF924F93F7
:1005A0005F936F937F938F929F922394789440915F
:1005B0006A00442311F451E001C054E050930B0150
:1005C00049B74F7349BF40E0409360000E94BF05A8
:1005D000F8942A9449F09F908F907F916F915F914A
:1005E0004F91CF90BF90AF90EF91FF91CF91DF915E
:1005F00078940895F894DF93CF93FF93EF9322209C
:1006000049F0AF92BF92CF924F935F936F937F93D6
:100610008F929F9223947894442740930B014093A8
:100620006B0049B7406C49BF0E94BF05F8942A94FB
:1006300049F09F908F907F916F915F914F91CF90F4
:10064000BF90AF90EF91FF91CF91DF917894089593
:10065000F894DF93CF93FF93EF93222049F0AF926A
:10066000BF92CF924F935F936F937F938F929F929E
:100670002394789440910B01442359F04A9539F41E
:1006800050916A00552311F443E001C044E04093C7
:100690000B010E94BF05F8942A9449F09F908F9017
:1006A0007F916F915F914F91CF90BF90AF90EF91FD
:1006B000FF91CF91DF9178940895F894DF93CF93D1
:1006C000FF93EF93222049F0AF92BF92CF924F93C6
:1006D0005F936F937F938F929F922394789440912E
:1006E0000B01439550916A00552319F0453020F4D1
:1006F00004C0443008F401C040E040930B010E9464
:10070000BF05F8942A9449F09F908F907F916F9144
:100710005F914F91CF90BF90AF90EF91FF91CF91AC
:10072000DF9178940895F894DF93CF93FF93EF933C
:10073000222049F0AF92BF92CF924F935F936F9375
:100740007F938F929F922394789470910B014091A4
:100750006A00423019F042E054E002C040E053E049
:10076000772309F4552740936A0050930B010E94A8
:10077000BF05F8942A9449F09F908F907F916F91D4
:100780005F914F91CF90BF90AF90EF91FF91CF913C
:10079000DF9178940895F894DF93CF93FF93EF93CC
:1007A000222049F0AF92BF92CF924F935F936F9305
:1007B0007F938F929F922394789470910B01409134
:1007C0006A00423019F042E054E002C040E053E0D9
:1007D000772309F4552740936A0050930B010E9438
:1007E000BF05F8942A9449F09F908F907F916F9164
:1007F0005F914F91CF90BF90AF90EF91FF91CF91CC
:10080000DF9178940895F894DF93CF93FF93EF935B
:10081000222049F0AF92BF92CF924F935F936F9394
:100820007F938F929F922394789441E040930E019E
:10083000F8942A9449F09F908F907F916F915F91E7
:100840004F91CF90BF90AF90EF91FF91CF91DF91FB
:1008500078940895F894DF93CF93FF93EF93222039
:1008600049F0AF92BF92CF924F935F936F937F9374
:100870008F929F9223947894882480920E01909076
:100880000201E199FECFF89440E05FE04FBB5EBB10
:100890009DBAE29AE19A7894F8942A9449F09F904C
:1008A0008F907F916F915F914F91CF90BF90AF905C
:1008B000EF91FF91CF91DF9178940895F894DF93B1
:1008C000CF93FF93EF93222049F0AF92BF92CF9244
:1008D0004F935F936F937F938F929F92239478941B
:1008E0009924BB24E2E4F9E0880CE80DF91D859019
:1008F0009490F401099447E711C044E20FC04DE51C
:100900000DC04DE60BC04EE209C04BE607C04AE7FA
:1009100005C045E203C04FE701C04FE2042EF89442
:100920002A9449F09F908F907F916F915F914F91A2
:10093000CF90BF90AF90EF91FF91CF91DF917894DE
:1009400008957B047D047F04810483048504870467
:1009500089048B048D04F894DF93CF93FF93EF9376
:10096000222049F0AF92BF92CF924F935F936F9343
:100970007F938F929F922394789440916B00552798
:1009800060910E01662391F44F3130F04E3338F010
:100990004D3540F04C3748F050EA0C94D60450E600
:1009A0000C94D60450E50C94D60450E9052EF89426
:1009B0002A9449F09F908F907F916F915F914F9112
:1009C000CF90BF90AF90EF91FF91CF91DF9178944E
:1009D00008956100620063006400F894DF93CF9390
:1009E000FF93EF93222049F0AF92BF92CF924F93A3
:1009F0005F936F937F938F929F9223947894CC24EC
:100A0000CEE6D0E0E1E6F0E05AE064E080900E014E
:100A1000882001F140910201C992C992F8948F9205
:100A20009F92842E952E0E9444069F908F90812C39
:100A3000F8948F92802C0E945E048F90402D41602C
:100A40004993F8948F92882C0E945E048F900992AB
:100A5000349662E04191F8948F929F92842E952E65
:100A60000E9444069F908F90402D512DF8948F92B4
:100A7000842E0E945E048F900992F8948F92852EA6
:100A80000E945E048F9009926A9521F7509173003D
:100A900050685093730040916A00442329F44993AD
:100AA0004993499349930FC0413029F4409166001E
:100AB00050916700D0CF423031F44091680050919E
:100AC0006900C9CF999088249924AA24BB24509105
:100AD00065008394879487945A950894E1F744239A
:100AE00049F051E0852A442329F00894A794423024
:100AF00009F4A69400008992A992B992F8942A94D4
:100B000049F09F908F907F916F915F914F91CF901F
:100B1000BF90AF90EF91FF91CF91DF9178940895BE
:100B2000F894DF93CF93FF93EF93222049F0AF9295
:100B3000BF92CF924F935F936F937F938F929F92C9
:100B4000239478948090650049E05FE0F0E0E3EE64
:100B50008A9411F04193FCCF5193F8942A9449F070
:100B60009F908F907F916F915F914F91CF90BF90A9
:100B7000AF90EF91FF91CF91DF9178940895F89421
:100B8000DF93CF93FF93EF93222049F0AF92BF9270
:100B9000CF924F935F936F937F938F929F92239403
:100BA000789480900B015527882011F049E002C00D
:100BB0004FE034C0F0E0EFE741935395503608F42E
:100BC000F9CFF0E0EFE741935395573608F4F9CFAA
:100BD0004FE08A9449F440937F0040938000409313
:100BE0008100409382001AC08A9449F440938300A4
:100BF0004093840040938500409386000FC08A9400
:100C000019F40E9490050AC08A9441F44093870029
:100C1000409388004093890040938A00F8942A9476
:100C200049F09F908F907F916F915F914F91CF90FE
:100C3000BF90AF90EF91FF91CF91DF91789408959D
:100C4000F894DF93CF93FF93EF93222049F0AF9274
:100C5000BF92CF924F935F936F937F938F929F92A8
:100C600023947894F8942A9449F09F908F907F91E0
:100C70006F915F914F91CF90BF90AF90EF91FF91A7
:100C8000CF91DF9178940895F894DF93CF93FF93F9
:100C9000EF93222049F0AF92BF92CF924F935F9390
:100CA0006F937F938F929F9223947894CC24002407
:100CB0009C1479F0B92CB7FC02C0BB0CFCCF182CEB
:100CC000000C1B1810F0039401C01B0CB694B9144F
:100CD000B8F70C14F8942A9449F09F908F907F9164
:100CE0006F915F914F91CF90BF90AF90EF91FF9137
:100CF000CF91DF9178940895F894DF93CF93FF9389
:100D0000EF93222049F0AF92BF92CF924F935F931F
:100D10006F937F938F929F9223947894CC24890C25
:100D20002CF08A1438F0C3948A18FBCFCA948A0C2A
:100D3000EAF300C0082C1C2CF8942A9449F09F90E8
:100D40008F907F916F915F914F91CF90BF90AF90B7
:100D5000EF91FF91CF91DF9178940895F894DF930C
:100D6000CF93FF93EF93222049F0AF92BF92CF929F
:100D70004F935F936F937F938F929F922394789476
:100D8000809061009090620040916A004030B9F01C
:100D9000413051F4A0906600B0906700A81479F437
:100DA000B91469F4042E0BC0423049F4A0906800D5
:100DB000B0906900A81419F4B91409F4042EF89439
:100DC0002A9449F09F908F907F916F915F914F91FE
:100DD000CF90BF90AF90EF91FF91CF91DF9178943A
:100DE0000895F894DF93CF93FF93EF93222049F077
:100DF000AF92BF92CF924F935F936F937F938F92F7
:100E00009F92239478948820D1F1409160005BE315
:100E1000F8948F929F92AF92842E982CA52E0E94C8
:100E20007C06AF909F908F9000926000812C12C042
:100E3000F894DF93CF93FF93EF93222049F0AF9282
:100E4000BF92CF924F935F936F937F938F929F92B6
:100E500023947894882099F0409162005BE3F894A1
:100E60008F929F92AF92842E982CA52E0E947C0682
:100E7000AF909F908F9000926200812C14C00C94D0
:100E8000EE07F894DF93CF93FF93EF93222049F07E
:100E9000AF92BF92CF924F935F936F937F938F9256
:100EA0009F9223947894882051F34091610057E1F8
:100EB000F8948F929F92AF92842E982CA52E0E9428
:100EC0007C06AF909F908F9000926100812CBB2494
:100ED00014C0F894DF93CF93FF93EF93222049F04F
:100EE000AF92BF92CF924F935F936F937F938F9206
:100EF0009F9223947894BB24B394882001F240916C
:100F0000650057E0F8948F929F92AF92842E982CB0
:100F1000A52E0E947C06AF909F908F900092650056
:100F2000BB20A9F512C0F894DF93CF93FF93EF9302
:100F3000222049F0AF92BF92CF924F935F936F936D
:100F40007F938F929F9223947894882001F1CC24F0
:100F500040916300B0906400BA94E199FECF60E0E4
:100F600070E06B0D7C1D6EBB7FBBE09A5DB3F894A7
:100F70008F929F92AF92842E982CA52E0E947C0671
:100F8000AF909F908F9000926300812C14C00C94BE
:100F9000EE07F894DF93CF93FF93EF93222049F06D
:100FA000AF92BF92CF924F935F936F937F938F9245
:100FB0009F9223947894882089F0409164005CE0AB
:100FC000F8948F929F92AF92842E982CA52E0E9417
:100FD0007C06AF909F908F9000926400F8942A94C2
:100FE00049F09F908F907F916F915F914F91CF903B
:100FF000BF90AF90EF91FF91CF91DF9178940895DA
:10100000CC249A94990CE6E6F0E0E90DFC1D4191A0
:1010100051910895F894DF93CF93FF93EF9322209B
:1010200049F0AF92BF92CF924F935F936F937F93AC
:101030008F929F92239478948820B9F10E9400089F
:101040006BE3F8948F929F92AF92852E982CA62EE8
:101050000E947C06AF909F908F900292812C17C0C7
:10106000F894DF93CF93FF93EF93222049F0AF9250
:10107000BF92CF924F935F936F937F938F929F9284
:1010800023947894882089F00E940008529367E1A5
:10109000F8948F929F92AF92842E982CA62E0E9445
:1010A0007C06AF909F908F900292F8942A9449F01A
:1010B0009F908F907F916F915F914F91CF90BF9054
:1010C000AF90EF91FF91CF91DF9178940895F894CC
:1010D000DF93CF93FF93EF93222049F0AF92BF921B
:1010E000CF924F935F936F937F938F929F922394AE
:1010F0007894CC24809065004CE050E0E199FECFDC
:101100004EBB5FBBE09A6DB353954C1D6815A1F7BC
:10111000603091F7062EF8942A9449F09F908F90B2
:101120007F916F915F914F91CF90BF90AF90EF9172
:10113000FF91CF91DF9178940895E0E6F0E00027E9
:101140000193F830E9F7E036D9F7EE27FF2701934E
:10115000EE31E9F7EE2708E00EBF0FE50DBF00E026
:1011600000936100009362000093600001E000932F
:101170006300009364000093650007EF07BB00EC79
:1011800004BB06EF0ABB06E00BBB08E806B903E4A4
:1011900007B90AEF03BD09B7006809BF00B70260CD
:1011A00000BF00E004BD0EE005BD0FE70CBF09B7AE
:1011B000026009BF00B7016000BF00E002BF0AE0A3
:1011C00003BF002700937E00009301010FE000930E
:1011D0000D010FEF00936D00F0E0EFE70193EF3B9F
:1011E000E9F7F030D9F7E199FECF0FE010E00EBB40
:1011F0001FBBE09A0DB30093020178943090000178
:10120000332041F00E94ED040E94150233243092F5
:10121000000112C030906C00332071F03324309202
:101220006C003394F8948F92832C0E94F1068F9077
:101230000E94ED040E9415020E9412010E94CF013B
:0C124000332400FE0E9456010C94FE08AE
:00000001FF
